{
  "contractName": "Election",
  "abi": [
    {
      "inputs": [],
      "payable": false,
      "stateMutability": "nonpayable",
      "type": "constructor"
    },
    {
      "anonymous": false,
      "inputs": [
        {
          "indexed": false,
          "internalType": "address",
          "name": "registered_person",
          "type": "address"
        }
      ],
      "name": "registeredEvent",
      "type": "event"
    },
    {
      "anonymous": false,
      "inputs": [
        {
          "indexed": false,
          "internalType": "uint256",
          "name": "indexed_candidateId",
          "type": "uint256"
        }
      ],
      "name": "votedEvent",
      "type": "event"
    },
    {
      "constant": true,
      "inputs": [
        {
          "internalType": "uint256",
          "name": "",
          "type": "uint256"
        }
      ],
      "name": "candidates",
      "outputs": [
        {
          "internalType": "uint256",
          "name": "id",
          "type": "uint256"
        },
        {
          "internalType": "string",
          "name": "name",
          "type": "string"
        },
        {
          "internalType": "uint256",
          "name": "voteCount",
          "type": "uint256"
        }
      ],
      "payable": false,
      "stateMutability": "view",
      "type": "function"
    },
    {
      "constant": true,
      "inputs": [],
      "name": "candidatesCount",
      "outputs": [
        {
          "internalType": "uint256",
          "name": "",
          "type": "uint256"
        }
      ],
      "payable": false,
      "stateMutability": "view",
      "type": "function"
    },
    {
      "constant": true,
      "inputs": [],
      "name": "head",
      "outputs": [
        {
          "internalType": "address",
          "name": "",
          "type": "address"
        }
      ],
      "payable": false,
      "stateMutability": "view",
      "type": "function"
    },
    {
      "constant": true,
      "inputs": [
        {
          "internalType": "address",
          "name": "",
          "type": "address"
        }
      ],
      "name": "registeredVoters",
      "outputs": [
        {
          "internalType": "bool",
          "name": "",
          "type": "bool"
        }
      ],
      "payable": false,
      "stateMutability": "view",
      "type": "function"
    },
    {
      "constant": true,
      "inputs": [],
      "name": "registeredVotersCount",
      "outputs": [
        {
          "internalType": "uint256",
          "name": "",
          "type": "uint256"
        }
      ],
      "payable": false,
      "stateMutability": "view",
      "type": "function"
    },
    {
      "constant": true,
      "inputs": [],
      "name": "start",
      "outputs": [
        {
          "internalType": "uint256",
          "name": "",
          "type": "uint256"
        }
      ],
      "payable": false,
      "stateMutability": "view",
      "type": "function"
    },
    {
      "constant": true,
      "inputs": [],
      "name": "timePeriod",
      "outputs": [
        {
          "internalType": "uint256",
          "name": "",
          "type": "uint256"
        }
      ],
      "payable": false,
      "stateMutability": "view",
      "type": "function"
    },
    {
      "constant": true,
      "inputs": [],
      "name": "votedCount",
      "outputs": [
        {
          "internalType": "uint256",
          "name": "",
          "type": "uint256"
        }
      ],
      "payable": false,
      "stateMutability": "view",
      "type": "function"
    },
    {
      "constant": true,
      "inputs": [
        {
          "internalType": "address",
          "name": "",
          "type": "address"
        }
      ],
      "name": "voters",
      "outputs": [
        {
          "internalType": "bool",
          "name": "",
          "type": "bool"
        }
      ],
      "payable": false,
      "stateMutability": "view",
      "type": "function"
    },
    {
      "constant": false,
      "inputs": [
        {
          "internalType": "uint256",
          "name": "_time",
          "type": "uint256"
        }
      ],
      "name": "getDuration",
      "outputs": [],
      "payable": false,
      "stateMutability": "nonpayable",
      "type": "function"
    },
    {
      "constant": false,
      "inputs": [
        {
          "internalType": "address",
          "name": "voter",
          "type": "address"
        }
      ],
      "name": "registerVoter",
      "outputs": [],
      "payable": false,
      "stateMutability": "nonpayable",
      "type": "function"
    },
    {
      "constant": false,
      "inputs": [
        {
          "internalType": "uint256",
          "name": "_id",
          "type": "uint256"
        }
      ],
      "name": "vote",
      "outputs": [],
      "payable": false,
      "stateMutability": "nonpayable",
      "type": "function"
    },
    {
      "constant": true,
      "inputs": [],
      "name": "winnerOfElection",
      "outputs": [
        {
          "internalType": "string",
          "name": "",
          "type": "string"
        }
      ],
      "payable": false,
      "stateMutability": "view",
      "type": "function"
    }
  ],
  "bytecode": "0x608060405234801561001057600080fd5b506100556040518060400160405280600b81526020017f43616e64696461746520310000000000000000000000000000000000000000008152506100ee60201b60201c565b6100996040518060400160405280600b81526020017f43616e64696461746520320000000000000000000000000000000000000000008152506100ee60201b60201c565b336000806101000a81548173ffffffffffffffffffffffffffffffffffffffff021916908373ffffffffffffffffffffffffffffffffffffffff1602179055504260018190555061012c60028190555061020f565b60076000815480929190600101919050555060405180606001604052806007548152602001828152602001600081525060066000600754815260200190815260200160002060008201518160000155602082015181600101908051906020019061015992919061016a565b506040820151816002015590505050565b828054600181600116156101000203166002900490600052602060002090601f016020900481019282601f106101ab57805160ff19168380011785556101d9565b828001600101855582156101d9579182015b828111156101d85782518255916020019190600101906101bd565b5b5090506101e691906101ea565b5090565b61020c91905b808211156102085760008160009055506001016101f0565b5090565b90565b610b088061021e6000396000f3fe608060405234801561001057600080fd5b50600436106100cf5760003560e01c80638bb126a71161008c578063a9ff6df111610066578063a9ff6df11461038e578063be9a6555146103ea578063ef6304f214610408578063f0232d0a14610426576100cf565b80638bb126a7146102ba5780638f7dcfa3146102e8578063a3ec138d14610332576100cf565b80630121b93f146100d4578063199f30de146101025780632d35a8a2146101855780633477ee2e146101a357806338db6dd3146102585780633e79d1e11461029c575b600080fd5b610100600480360360208110156100ea57600080fd5b8101908080359060200190929190505050610444565b005b61010a6105e8565b6040518080602001828103825283818151815260200191508051906020019080838360005b8381101561014a57808201518184015260208101905061012f565b50505050905090810190601f1680156101775780820380516001836020036101000a031916815260200191505b509250505060405180910390f35b61018d610800565b6040518082815260200191505060405180910390f35b6101cf600480360360208110156101b957600080fd5b8101908080359060200190929190505050610806565b6040518084815260200180602001838152602001828103825284818151815260200191508051906020019080838360005b8381101561021b578082015181840152602081019050610200565b50505050905090810190601f1680156102485780820380516001836020036101000a031916815260200191505b5094505050505060405180910390f35b61029a6004803603602081101561026e57600080fd5b81019080803573ffffffffffffffffffffffffffffffffffffffff1690602001909291905050506108c8565b005b6102a4610a48565b6040518082815260200191505060405180910390f35b6102e6600480360360208110156102d057600080fd5b8101908080359060200190929190505050610a4e565b005b6102f0610a5c565b604051808273ffffffffffffffffffffffffffffffffffffffff1673ffffffffffffffffffffffffffffffffffffffff16815260200191505060405180910390f35b6103746004803603602081101561034857600080fd5b81019080803573ffffffffffffffffffffffffffffffffffffffff169060200190929190505050610a81565b604051808215151515815260200191505060405180910390f35b6103d0600480360360208110156103a457600080fd5b81019080803573ffffffffffffffffffffffffffffffffffffffff169060200190929190505050610aa1565b604051808215151515815260200191505060405180910390f35b6103f2610ac1565b6040518082815260200191505060405180910390f35b610410610ac7565b6040518082815260200191505060405180910390f35b61042e610acd565b6040518082815260200191505060405180910390f35b60025460015401421061045657600080fd5b600560003373ffffffffffffffffffffffffffffffffffffffff1673ffffffffffffffffffffffffffffffffffffffff16815260200190815260200160002060009054906101000a900460ff16156104ad57600080fd5b600360003373ffffffffffffffffffffffffffffffffffffffff1673ffffffffffffffffffffffffffffffffffffffff16815260200190815260200160002060009054906101000a900460ff1661050357600080fd5b60008111801561051557506007548111155b61051e57600080fd5b6001600560003373ffffffffffffffffffffffffffffffffffffffff1673ffffffffffffffffffffffffffffffffffffffff16815260200190815260200160002060006101000a81548160ff02191690831515021790555060066000828152602001908152602001600020600201600081548092919060010191905055506008600081548092919060010191905055507ffff3c900d938d21d0990d786e819f29b8d05c1ef587b462b939609625b684b16816040518082815260200191505060405180910390a150565b6060600660006002815260200190815260200160002060020154600660006001815260200190815260200160002060020154141561065d576040518060400160405280600a81526020017f556e6465636c617265640000000000000000000000000000000000000000000081525090506107fd565b600660006002815260200190815260200160002060020154600660006001815260200190815260200160002060020154111561074a5760066000600181526020019081526020016000206001018054600181600116156101000203166002900480601f01602080910402602001604051908101604052809291908181526020018280546001816001161561010002031660029004801561073e5780601f106107135761010080835404028352916020019161073e565b820191906000526020600020905b81548152906001019060200180831161072157829003601f168201915b505050505090506107fd565b60066000600281526020019081526020016000206001018054600181600116156101000203166002900480601f0160208091040260200160405190810160405280929190818152602001828054600181600116156101000203166002900480156107f55780601f106107ca576101008083540402835291602001916107f5565b820191906000526020600020905b8154815290600101906020018083116107d857829003601f168201915b505050505090505b90565b60075481565b6006602052806000526040600020600091509050806000015490806001018054600181600116156101000203166002900480601f0160208091040260200160405190810160405280929190818152602001828054600181600116156101000203166002900480156108b85780601f1061088d576101008083540402835291602001916108b8565b820191906000526020600020905b81548152906001019060200180831161089b57829003601f168201915b5050505050908060020154905083565b6000809054906101000a900473ffffffffffffffffffffffffffffffffffffffff1673ffffffffffffffffffffffffffffffffffffffff163373ffffffffffffffffffffffffffffffffffffffff161461092157600080fd5b600360008273ffffffffffffffffffffffffffffffffffffffff1673ffffffffffffffffffffffffffffffffffffffff16815260200190815260200160002060009054906101000a900460ff161561097857600080fd5b6001600360008373ffffffffffffffffffffffffffffffffffffffff1673ffffffffffffffffffffffffffffffffffffffff16815260200190815260200160002060006101000a81548160ff0219169083151502179055506004600081548092919060010191905055507fd125b2c28aca1aef2b524fff25dcb80fc94dda58d5a1fa12eec47ff5019a319781604051808273ffffffffffffffffffffffffffffffffffffffff1673ffffffffffffffffffffffffffffffffffffffff16815260200191505060405180910390a150565b60025481565b610e10810260028190555050565b6000809054906101000a900473ffffffffffffffffffffffffffffffffffffffff1681565b60056020528060005260406000206000915054906101000a900460ff1681565b60036020528060005260406000206000915054906101000a900460ff1681565b60015481565b60045481565b6008548156fea265627a7a72315820a7ae8ee9cc033c548c90c245bc0e0b7d3ddd38a60834623d07346a9bc7c5a1ff64736f6c63430005100032",
  "source": "pragma solidity >=0.4.22 <0.8.0;\n\ncontract Election{\n    \n    //head of election commision is the only one who can register the candidates for voting\n    address public head;\n\n    //start is the time when voting process starts i.e when contract deployed\n    uint public start;\n\n    //get duration of voting period from head of election commision\n    uint public timePeriod;\n\n    //model of a candidate\n    struct Candidate{\n        uint id;\n        string name;\n        uint voteCount;\n    }\n\n    //registered voters\n    mapping (address=>bool) public registeredVoters;\n\n    //to keep track of total number of registered voters\n    uint public registeredVotersCount;\n\n    //to keep track of voters\n    mapping (address=>bool) public voters;\n\n    //used to fetch candidates data using id\n    mapping(uint=>Candidate) public candidates;\n\n    //to keep track of how many candidates are there\n    uint public candidatesCount;\n\n    //to keep track of voted voters coount\n    uint public votedCount;\n\n    //registered event\n    event registeredEvent( \n        address registered_person\n    );\n\n    //voted event\n    event votedEvent(\n        uint indexed_candidateId\n    );\n\n    //constructor\n    constructor() public{\n        addCandidate(\"Candidate 1\");\n        addCandidate(\"Candidate 2\");\n        //head is the one who deploys the contract  and head of election\n        head=msg.sender;\n        start=now;\n        timePeriod=300 seconds;\n    }\n\n    //to get duration period from head of election commision only\n    function getDuration(uint _time) public{\n        timePeriod=_time *3600;\n    }\n\n\n    //to add new candidate\n    function addCandidate(string memory _name) private{\n        candidatesCount++;\n        candidates[candidatesCount]= Candidate(candidatesCount,_name,0);\n    }\n\n    //to register for voting\n    function registerVoter(address voter) public{\n\n        //head of election commision can only register the voters\n        require(msg.sender==head);\n\n        //require that voter have not registered yet\n        require(!registeredVoters[voter]);\n\n        //mark voter has registered\n        registeredVoters[voter]=true;\n\n        //increment registered voters count\n        registeredVotersCount++;\n\n        //trigger registered event\n        emit registeredEvent(voter);\n    }\n\n    //to vote a candidate\n    function vote(uint _id) public{\n        //allow voting only in given period of time\n        require(now<start+timePeriod);\n        //require that voter have not voted yet\n        require(!voters[msg.sender]);\n\n        //require that voter has registered by head\n        require(registeredVoters[msg.sender]);\n\n        //require a valid candidate\n        require(_id>0 && _id<=candidatesCount);\n\n        //mark voter has voted\n        voters[msg.sender]=true;\n\n        //increment candidates vote count\n        candidates[_id].voteCount++;\n\n        //increment the voted voters count\n        votedCount++;\n\n        //trigger voted event\n        emit votedEvent(_id);\n    }\n\n    function winnerOfElection() public view returns(string memory){\n        \n        if(candidates[1].voteCount==candidates[2].voteCount){\n            return \"Undeclared\";\n        }\n        if(candidates[1].voteCount>candidates[2].voteCount){\n            return candidates[1].name;\n        }\n        return candidates[2].name;\n    }\n\n\n}",
  "sourcePath": "/home/ajay/Project/Dapp-voting-system/contracts/Election.sol",
  "compiler": {
    "name": "solc",
    "version": "0.5.16+commit.9c3226ce.Emscripten.clang"
  },
  "schemaVersion": "3.2.3",
  "updatedAt": "2021-06-23T17:58:26.558Z",
  "networkType": "ethereum",
  "devdoc": {
    "methods": {}
  },
  "userdoc": {
    "methods": {}
  }
}